{
  "contractName": "PLC",
  "abi": [
    {
      "inputs": [],
      "stateMutability": "nonpayable",
      "type": "constructor"
    },
    {
      "anonymous": false,
      "inputs": [
        {
          "indexed": true,
          "internalType": "bytes32",
          "name": "role",
          "type": "bytes32"
        },
        {
          "indexed": true,
          "internalType": "address",
          "name": "account",
          "type": "address"
        }
      ],
      "name": "GrantRole",
      "type": "event"
    },
    {
      "anonymous": false,
      "inputs": [
        {
          "indexed": true,
          "internalType": "uint256",
          "name": "c_Id",
          "type": "uint256"
        }
      ],
      "name": "Purchasing",
      "type": "event"
    },
    {
      "anonymous": false,
      "inputs": [
        {
          "indexed": true,
          "internalType": "bytes32",
          "name": "role",
          "type": "bytes32"
        },
        {
          "indexed": true,
          "internalType": "address",
          "name": "account",
          "type": "address"
        }
      ],
      "name": "RevokeRole",
      "type": "event"
    },
    {
      "anonymous": false,
      "inputs": [
        {
          "indexed": true,
          "internalType": "uint256",
          "name": "d_Id",
          "type": "uint256"
        }
      ],
      "name": "distributing",
      "type": "event"
    },
    {
      "anonymous": false,
      "inputs": [
        {
          "indexed": true,
          "internalType": "uint256",
          "name": "m_Id",
          "type": "uint256"
        }
      ],
      "name": "manufacturing",
      "type": "event"
    },
    {
      "anonymous": false,
      "inputs": [
        {
          "indexed": true,
          "internalType": "uint256",
          "name": "re_Id",
          "type": "uint256"
        }
      ],
      "name": "retailing",
      "type": "event"
    },
    {
      "anonymous": false,
      "inputs": [
        {
          "indexed": true,
          "internalType": "uint256",
          "name": "se_Id",
          "type": "uint256"
        }
      ],
      "name": "servicing",
      "type": "event"
    },
    {
      "inputs": [
        {
          "internalType": "uint256",
          "name": "",
          "type": "uint256"
        }
      ],
      "name": "Customer",
      "outputs": [
        {
          "internalType": "uint256",
          "name": "cus_id",
          "type": "uint256"
        },
        {
          "internalType": "string",
          "name": "email",
          "type": "string"
        },
        {
          "internalType": "uint256",
          "name": "prod_id",
          "type": "uint256"
        },
        {
          "internalType": "uint256",
          "name": "ratings",
          "type": "uint256"
        },
        {
          "internalType": "string",
          "name": "date_time",
          "type": "string"
        }
      ],
      "stateMutability": "view",
      "type": "function"
    },
    {
      "inputs": [
        {
          "internalType": "uint256",
          "name": "",
          "type": "uint256"
        }
      ],
      "name": "Retail",
      "outputs": [
        {
          "internalType": "uint256",
          "name": "re_id",
          "type": "uint256"
        },
        {
          "internalType": "string",
          "name": "r_name",
          "type": "string"
        },
        {
          "internalType": "string",
          "name": "address_r",
          "type": "string"
        },
        {
          "internalType": "uint256",
          "name": "prod_id",
          "type": "uint256"
        },
        {
          "internalType": "string",
          "name": "date_time",
          "type": "string"
        },
        {
          "internalType": "string",
          "name": "sold_status",
          "type": "string"
        }
      ],
      "stateMutability": "view",
      "type": "function"
    },
    {
      "inputs": [
        {
          "internalType": "uint256",
          "name": "",
          "type": "uint256"
        }
      ],
      "name": "ServiceCenter",
      "outputs": [
        {
          "internalType": "uint256",
          "name": "se_id",
          "type": "uint256"
        },
        {
          "internalType": "uint256",
          "name": "prod_id",
          "type": "uint256"
        },
        {
          "internalType": "string",
          "name": "defect_part",
          "type": "string"
        },
        {
          "internalType": "uint256",
          "name": "defect_rate",
          "type": "uint256"
        },
        {
          "internalType": "string",
          "name": "location",
          "type": "string"
        },
        {
          "internalType": "string",
          "name": "date_time",
          "type": "string"
        }
      ],
      "stateMutability": "view",
      "type": "function"
    },
    {
      "inputs": [
        {
          "internalType": "uint256",
          "name": "",
          "type": "uint256"
        }
      ],
      "name": "distributor",
      "outputs": [
        {
          "internalType": "uint256",
          "name": "d_id",
          "type": "uint256"
        },
        {
          "internalType": "string",
          "name": "dis_name",
          "type": "string"
        },
        {
          "internalType": "string",
          "name": "address_dis",
          "type": "string"
        },
        {
          "internalType": "uint256",
          "name": "prod_id",
          "type": "uint256"
        },
        {
          "internalType": "string",
          "name": "date_time",
          "type": "string"
        }
      ],
      "stateMutability": "view",
      "type": "function"
    },
    {
      "inputs": [
        {
          "internalType": "uint256",
          "name": "",
          "type": "uint256"
        }
      ],
      "name": "prodDETAILS",
      "outputs": [
        {
          "internalType": "uint256",
          "name": "m_id",
          "type": "uint256"
        },
        {
          "internalType": "uint256",
          "name": "p_id",
          "type": "uint256"
        },
        {
          "internalType": "string",
          "name": "product_name",
          "type": "string"
        },
        {
          "internalType": "string",
          "name": "product_model_number",
          "type": "string"
        },
        {
          "internalType": "uint256",
          "name": "batch_id",
          "type": "uint256"
        },
        {
          "internalType": "string",
          "name": "date_time",
          "type": "string"
        },
        {
          "internalType": "string",
          "name": "address_manufacturer",
          "type": "string"
        },
        {
          "internalType": "string",
          "name": "name_manufacturer",
          "type": "string"
        }
      ],
      "stateMutability": "view",
      "type": "function"
    },
    {
      "inputs": [
        {
          "internalType": "bytes32",
          "name": "",
          "type": "bytes32"
        },
        {
          "internalType": "address",
          "name": "",
          "type": "address"
        }
      ],
      "name": "roles",
      "outputs": [
        {
          "internalType": "bool",
          "name": "",
          "type": "bool"
        }
      ],
      "stateMutability": "view",
      "type": "function"
    },
    {
      "inputs": [
        {
          "internalType": "bytes32",
          "name": "_role",
          "type": "bytes32"
        },
        {
          "internalType": "address",
          "name": "_account",
          "type": "address"
        }
      ],
      "name": "grantRole",
      "outputs": [],
      "stateMutability": "nonpayable",
      "type": "function"
    },
    {
      "inputs": [
        {
          "internalType": "uint256",
          "name": "_p_id",
          "type": "uint256"
        },
        {
          "internalType": "string",
          "name": "_product_name",
          "type": "string"
        },
        {
          "internalType": "string",
          "name": "_product_model_number",
          "type": "string"
        },
        {
          "internalType": "uint256",
          "name": "_batch_id",
          "type": "uint256"
        },
        {
          "internalType": "string",
          "name": "_date_time",
          "type": "string"
        },
        {
          "internalType": "string",
          "name": "_address_manufacturer",
          "type": "string"
        },
        {
          "internalType": "string",
          "name": "_name_manufacturer",
          "type": "string"
        }
      ],
      "name": "addproduct",
      "outputs": [],
      "stateMutability": "nonpayable",
      "type": "function"
    },
    {
      "inputs": [
        {
          "internalType": "string",
          "name": "_dis_name",
          "type": "string"
        },
        {
          "internalType": "string",
          "name": "_address_dis",
          "type": "string"
        },
        {
          "internalType": "uint256",
          "name": "_prod_id",
          "type": "uint256"
        },
        {
          "internalType": "string",
          "name": "_date_time",
          "type": "string"
        }
      ],
      "name": "add_distributordetails",
      "outputs": [],
      "stateMutability": "nonpayable",
      "type": "function"
    },
    {
      "inputs": [
        {
          "internalType": "string",
          "name": "_r_name",
          "type": "string"
        },
        {
          "internalType": "string",
          "name": "_address_r",
          "type": "string"
        },
        {
          "internalType": "uint256",
          "name": "_prod_id",
          "type": "uint256"
        },
        {
          "internalType": "string",
          "name": "_date_time",
          "type": "string"
        },
        {
          "internalType": "string",
          "name": "_sold_status",
          "type": "string"
        }
      ],
      "name": "add_retailerdetails",
      "outputs": [],
      "stateMutability": "nonpayable",
      "type": "function"
    },
    {
      "inputs": [
        {
          "internalType": "uint256",
          "name": "_prod_id",
          "type": "uint256"
        },
        {
          "internalType": "string",
          "name": "_defect_part",
          "type": "string"
        },
        {
          "internalType": "uint256",
          "name": "_defect_rate",
          "type": "uint256"
        },
        {
          "internalType": "string",
          "name": "_location",
          "type": "string"
        },
        {
          "internalType": "string",
          "name": "_date_time",
          "type": "string"
        }
      ],
      "name": "add_SCdetails",
      "outputs": [],
      "stateMutability": "nonpayable",
      "type": "function"
    },
    {
      "inputs": [
        {
          "internalType": "string",
          "name": "_email",
          "type": "string"
        },
        {
          "internalType": "uint256",
          "name": "_prod_id",
          "type": "uint256"
        },
        {
          "internalType": "uint256",
          "name": "_ratings",
          "type": "uint256"
        },
        {
          "internalType": "string",
          "name": "_date_time",
          "type": "string"
        }
      ],
      "name": "cus_details",
      "outputs": [],
      "stateMutability": "nonpayable",
      "type": "function"
    },
    {
      "inputs": [
        {
          "internalType": "uint256",
          "name": "_prodId",
          "type": "uint256"
        }
      ],
      "name": "getManufacturerDetails",
      "outputs": [
        {
          "components": [
            {
              "internalType": "uint256",
              "name": "m_id",
              "type": "uint256"
            },
            {
              "internalType": "uint256",
              "name": "p_id",
              "type": "uint256"
            },
            {
              "internalType": "string",
              "name": "product_name",
              "type": "string"
            },
            {
              "internalType": "string",
              "name": "product_model_number",
              "type": "string"
            },
            {
              "internalType": "uint256",
              "name": "batch_id",
              "type": "uint256"
            },
            {
              "internalType": "string",
              "name": "date_time",
              "type": "string"
            },
            {
              "internalType": "string",
              "name": "address_manufacturer",
              "type": "string"
            },
            {
              "internalType": "string",
              "name": "name_manufacturer",
              "type": "string"
            }
          ],
          "internalType": "struct PLC.product",
          "name": "",
          "type": "tuple"
        }
      ],
      "stateMutability": "view",
      "type": "function"
    },
    {
      "inputs": [
        {
          "internalType": "uint256",
          "name": "_disId",
          "type": "uint256"
        }
      ],
      "name": "getDistributorDetails",
      "outputs": [
        {
          "components": [
            {
              "internalType": "uint256",
              "name": "d_id",
              "type": "uint256"
            },
            {
              "internalType": "string",
              "name": "dis_name",
              "type": "string"
            },
            {
              "internalType": "string",
              "name": "address_dis",
              "type": "string"
            },
            {
              "internalType": "uint256",
              "name": "prod_id",
              "type": "uint256"
            },
            {
              "internalType": "string",
              "name": "date_time",
              "type": "string"
            }
          ],
          "internalType": "struct PLC.dis",
          "name": "",
          "type": "tuple"
        }
      ],
      "stateMutability": "view",
      "type": "function"
    },
    {
      "inputs": [
        {
          "internalType": "uint256",
          "name": "_rId",
          "type": "uint256"
        }
      ],
      "name": "getRetailerDetails",
      "outputs": [
        {
          "components": [
            {
              "internalType": "uint256",
              "name": "re_id",
              "type": "uint256"
            },
            {
              "internalType": "string",
              "name": "r_name",
              "type": "string"
            },
            {
              "internalType": "string",
              "name": "address_r",
              "type": "string"
            },
            {
              "internalType": "uint256",
              "name": "prod_id",
              "type": "uint256"
            },
            {
              "internalType": "string",
              "name": "date_time",
              "type": "string"
            },
            {
              "internalType": "string",
              "name": "sold_status",
              "type": "string"
            }
          ],
          "internalType": "struct PLC.retail",
          "name": "",
          "type": "tuple"
        }
      ],
      "stateMutability": "view",
      "type": "function"
    },
    {
      "inputs": [
        {
          "internalType": "uint256",
          "name": "_sId",
          "type": "uint256"
        }
      ],
      "name": "getServiceCenterDetails",
      "outputs": [
        {
          "components": [
            {
              "internalType": "uint256",
              "name": "se_id",
              "type": "uint256"
            },
            {
              "internalType": "uint256",
              "name": "prod_id",
              "type": "uint256"
            },
            {
              "internalType": "string",
              "name": "defect_part",
              "type": "string"
            },
            {
              "internalType": "uint256",
              "name": "defect_rate",
              "type": "uint256"
            },
            {
              "internalType": "string",
              "name": "location",
              "type": "string"
            },
            {
              "internalType": "string",
              "name": "date_time",
              "type": "string"
            }
          ],
          "internalType": "struct PLC.service",
          "name": "",
          "type": "tuple"
        }
      ],
      "stateMutability": "view",
      "type": "function"
    },
    {
      "inputs": [
        {
          "internalType": "uint256",
          "name": "_cId",
          "type": "uint256"
        }
      ],
      "name": "getCustomerDetails",
      "outputs": [
        {
          "components": [
            {
              "internalType": "uint256",
              "name": "cus_id",
              "type": "uint256"
            },
            {
              "internalType": "string",
              "name": "email",
              "type": "string"
            },
            {
              "internalType": "uint256",
              "name": "prod_id",
              "type": "uint256"
            },
            {
              "internalType": "uint256",
              "name": "ratings",
              "type": "uint256"
            },
            {
              "internalType": "string",
              "name": "date_time",
              "type": "string"
            }
          ],
          "internalType": "struct PLC.customer",
          "name": "",
          "type": "tuple"
        }
      ],
      "stateMutability": "view",
      "type": "function"
    }
  ],
  "bytecode": "0x60806040523480156200001157600080fd5b506200004a604051602001620000279062000183565b60405160208183030381529060405280519060200120336200007860201b60201c565b60006002819055506000600481905550600060068190555060006008819055506000600a819055506200019a565b600160008084815260200190815260200160002060008373ffffffffffffffffffffffffffffffffffffffff1673ffffffffffffffffffffffffffffffffffffffff16815260200190815260200160002060006101000a81548160ff0219169083151502179055508073ffffffffffffffffffffffffffffffffffffffff16827f5a06360d65acf95e98445dc834f205063424c636e65418d928cdfabc33a9539960405160405180910390a35050565b600081905092915050565b7f41646d696e000000000000000000000000000000000000000000000000000000600082015250565b60006200016b60058362000128565b9150620001788262000133565b600582019050919050565b600062000190826200015c565b9150819050919050565b6137f480620001aa6000396000f3fe608060405234801561001057600080fd5b506004361061010b5760003560e01c806397cb35ae116100a2578063b239d98211610071578063b239d982146102fe578063b2b93a4c1461031a578063be193fcb1461034a578063c600e5691461037a578063f8fc08b9146103b15761010b565b806397cb35ae146102615780639830feb614610291578063ab385ba1146102ad578063aeb2e40e146102e25761010b565b80632f2ff15d116100de5780632f2ff15d146101ac5780633b7ea5c7146101c85780633d753a1c146101f857806396e113ed1461022d5761010b565b806313b4e8d31461011057806315e91ee31461012c57806326f4fe05146101485780632c4ae7161461017c575b600080fd5b61012a6004803603810190610125919061253a565b6103e1565b005b610146600480360381019061014191906125d9565b61054c565b005b610162600480360381019061015d9190612694565b6106c3565b604051610173959493929190612758565b60405180910390f35b61019660048036038101906101919190612694565b610891565b6040516101a39190612896565b60405180910390f35b6101c660048036038101906101c1919061294c565b610a00565b005b6101e260048036038101906101dd9190612694565b610ad0565b6040516101ef9190612a23565b60405180910390f35b610212600480360381019061020d9190612694565b610cd1565b60405161022496959493929190612a45565b60405180910390f35b61024760048036038101906102429190612694565b610f2d565b604051610258959493929190612ac2565b60405180910390f35b61027b60048036038101906102769190612694565b611073565b6040516102889190612bef565b60405180910390f35b6102ab60048036038101906102a69190612c11565b611399565b005b6102c760048036038101906102c29190612694565b61155c565b6040516102d996959493929190612d3f565b60405180910390f35b6102fc60048036038101906102f79190612db5565b611730565b005b61031860048036038101906103139190612ea0565b6118c4565b005b610334600480360381019061032f9190612694565b611a4c565b6040516103419190612ff3565b60405180910390f35b610364600480360381019061035f9190612694565b611c43565b60405161037191906130b3565b60405180910390f35b610394600480360381019061038f9190612694565b611ecc565b6040516103a89897969594939291906130d5565b60405180910390f35b6103cb60048036038101906103c6919061294c565b6121bc565b6040516103d89190613191565b60405180910390f35b6040516020016103f090613203565b6040516020818303038152906040528051906020012060008082815260200190815260200160002060003373ffffffffffffffffffffffffffffffffffffffff1673ffffffffffffffffffffffffffffffffffffffff16815260200190815260200160002060009054906101000a900460ff166104a2576040517f08c379a000000000000000000000000000000000000000000000000000000000815260040161049990613264565b60405180910390fd5b6040518060a00160405280600a5481526020018681526020018581526020018481526020018381525060096000600a5481526020019081526020016000206000820151816000015560208201518160010190816104ff9190613490565b50604082015181600201556060820151816003015560808201518160040190816105299190613490565b50905050600a600081548092919061054090613591565b91905055505050505050565b60405160200161055b90613625565b6040516020818303038152906040528051906020012060008082815260200190815260200160002060003373ffffffffffffffffffffffffffffffffffffffff1673ffffffffffffffffffffffffffffffffffffffff16815260200190815260200160002060009054906101000a900460ff1661060d576040517f08c379a000000000000000000000000000000000000000000000000000000000815260040161060490613264565b60405180910390fd5b6040518060a0016040528060045481526020018681526020018581526020018481526020018381525060036000600454815260200190815260200160002060008201518160000155602082015181600101908161066a9190613490565b5060408201518160020190816106809190613490565b506060820151816003015560808201518160040190816106a09190613490565b50905050600460008154809291906106b790613591565b91905055505050505050565b60036020528060005260406000206000915090508060000154908060010180546106ec906132b3565b80601f0160208091040260200160405190810160405280929190818152602001828054610718906132b3565b80156107655780601f1061073a57610100808354040283529160200191610765565b820191906000526020600020905b81548152906001019060200180831161074857829003601f168201915b50505050509080600201805461077a906132b3565b80601f01602080910402602001604051908101604052809291908181526020018280546107a6906132b3565b80156107f35780601f106107c8576101008083540402835291602001916107f3565b820191906000526020600020905b8154815290600101906020018083116107d657829003601f168201915b50505050509080600301549080600401805461080e906132b3565b80601f016020809104026020016040519081016040528092919081815260200182805461083a906132b3565b80156108875780601f1061085c57610100808354040283529160200191610887565b820191906000526020600020905b81548152906001019060200180831161086a57829003601f168201915b5050505050905085565b61089961229b565b600960008381526020019081526020016000206040518060a0016040529081600082015481526020016001820180546108d1906132b3565b80601f01602080910402602001604051908101604052809291908181526020018280546108fd906132b3565b801561094a5780601f1061091f5761010080835404028352916020019161094a565b820191906000526020600020905b81548152906001019060200180831161092d57829003601f168201915b505050505081526020016002820154815260200160038201548152602001600482018054610977906132b3565b80601f01602080910402602001604051908101604052809291908181526020018280546109a3906132b3565b80156109f05780601f106109c5576101008083540402835291602001916109f0565b820191906000526020600020905b8154815290600101906020018083116109d357829003601f168201915b5050505050815250509050919050565b604051602001610a0f90613686565b6040516020818303038152906040528051906020012060008082815260200190815260200160002060003373ffffffffffffffffffffffffffffffffffffffff1673ffffffffffffffffffffffffffffffffffffffff16815260200190815260200160002060009054906101000a900460ff16610ac1576040517f08c379a0000000000000000000000000000000000000000000000000000000008152600401610ab890613264565b60405180910390fd5b610acb83836121eb565b505050565b610ad86122ca565b600760008381526020019081526020016000206040518060c00160405290816000820154815260200160018201548152602001600282018054610b1a906132b3565b80601f0160208091040260200160405190810160405280929190818152602001828054610b46906132b3565b8015610b935780601f10610b6857610100808354040283529160200191610b93565b820191906000526020600020905b815481529060010190602001808311610b7657829003601f168201915b5050505050815260200160038201548152602001600482018054610bb6906132b3565b80601f0160208091040260200160405190810160405280929190818152602001828054610be2906132b3565b8015610c2f5780601f10610c0457610100808354040283529160200191610c2f565b820191906000526020600020905b815481529060010190602001808311610c1257829003601f168201915b50505050508152602001600582018054610c48906132b3565b80601f0160208091040260200160405190810160405280929190818152602001828054610c74906132b3565b8015610cc15780601f10610c9657610100808354040283529160200191610cc1565b820191906000526020600020905b815481529060010190602001808311610ca457829003601f168201915b5050505050815250509050919050565b6005602052806000526040600020600091509050806000015490806001018054610cfa906132b3565b80601f0160208091040260200160405190810160405280929190818152602001828054610d26906132b3565b8015610d735780601f10610d4857610100808354040283529160200191610d73565b820191906000526020600020905b815481529060010190602001808311610d5657829003601f168201915b505050505090806002018054610d88906132b3565b80601f0160208091040260200160405190810160405280929190818152602001828054610db4906132b3565b8015610e015780601f10610dd657610100808354040283529160200191610e01565b820191906000526020600020905b815481529060010190602001808311610de457829003601f168201915b505050505090806003015490806004018054610e1c906132b3565b80601f0160208091040260200160405190810160405280929190818152602001828054610e48906132b3565b8015610e955780601f10610e6a57610100808354040283529160200191610e95565b820191906000526020600020905b815481529060010190602001808311610e7857829003601f168201915b505050505090806005018054610eaa906132b3565b80601f0160208091040260200160405190810160405280929190818152602001828054610ed6906132b3565b8015610f235780601f10610ef857610100808354040283529160200191610f23565b820191906000526020600020905b815481529060010190602001808311610f0657829003601f168201915b5050505050905086565b6009602052806000526040600020600091509050806000015490806001018054610f56906132b3565b80601f0160208091040260200160405190810160405280929190818152602001828054610f82906132b3565b8015610fcf5780601f10610fa457610100808354040283529160200191610fcf565b820191906000526020600020905b815481529060010190602001808311610fb257829003601f168201915b505050505090806002015490806003015490806004018054610ff0906132b3565b80601f016020809104026020016040519081016040528092919081815260200182805461101c906132b3565b80156110695780601f1061103e57610100808354040283529160200191611069565b820191906000526020600020905b81548152906001019060200180831161104c57829003601f168201915b5050505050905085565b61107b612300565b600160008381526020019081526020016000206040518061010001604052908160008201548152602001600182015481526020016002820180546110be906132b3565b80601f01602080910402602001604051908101604052809291908181526020018280546110ea906132b3565b80156111375780601f1061110c57610100808354040283529160200191611137565b820191906000526020600020905b81548152906001019060200180831161111a57829003601f168201915b50505050508152602001600382018054611150906132b3565b80601f016020809104026020016040519081016040528092919081815260200182805461117c906132b3565b80156111c95780601f1061119e576101008083540402835291602001916111c9565b820191906000526020600020905b8154815290600101906020018083116111ac57829003601f168201915b50505050508152602001600482015481526020016005820180546111ec906132b3565b80601f0160208091040260200160405190810160405280929190818152602001828054611218906132b3565b80156112655780601f1061123a57610100808354040283529160200191611265565b820191906000526020600020905b81548152906001019060200180831161124857829003601f168201915b5050505050815260200160068201805461127e906132b3565b80601f01602080910402602001604051908101604052809291908181526020018280546112aa906132b3565b80156112f75780601f106112cc576101008083540402835291602001916112f7565b820191906000526020600020905b8154815290600101906020018083116112da57829003601f168201915b50505050508152602001600782018054611310906132b3565b80601f016020809104026020016040519081016040528092919081815260200182805461133c906132b3565b80156113895780601f1061135e57610100808354040283529160200191611389565b820191906000526020600020905b81548152906001019060200180831161136c57829003601f168201915b5050505050815250509050919050565b6040516020016113a8906136e7565b6040516020818303038152906040528051906020012060008082815260200190815260200160002060003373ffffffffffffffffffffffffffffffffffffffff1673ffffffffffffffffffffffffffffffffffffffff16815260200190815260200160002060009054906101000a900460ff1661145a576040517f08c379a000000000000000000000000000000000000000000000000000000000815260040161145190613264565b60405180910390fd5b604051806101000160405280600254815260200189815260200188815260200187815260200186815260200185815260200184815260200183815250600160006002548152602001908152602001600020600082015181600001556020820151816001015560408201518160020190816114d49190613490565b5060608201518160030190816114ea9190613490565b506080820151816004015560a082015181600501908161150a9190613490565b5060c08201518160060190816115209190613490565b5060e08201518160070190816115369190613490565b509050506002600081548092919061154d90613591565b91905055505050505050505050565b600760205280600052604060002060009150905080600001549080600101549080600201805461158b906132b3565b80601f01602080910402602001604051908101604052809291908181526020018280546115b7906132b3565b80156116045780601f106115d957610100808354040283529160200191611604565b820191906000526020600020905b8154815290600101906020018083116115e757829003601f168201915b50505050509080600301549080600401805461161f906132b3565b80601f016020809104026020016040519081016040528092919081815260200182805461164b906132b3565b80156116985780601f1061166d57610100808354040283529160200191611698565b820191906000526020600020905b81548152906001019060200180831161167b57829003601f168201915b5050505050908060050180546116ad906132b3565b80601f01602080910402602001604051908101604052809291908181526020018280546116d9906132b3565b80156117265780601f106116fb57610100808354040283529160200191611726565b820191906000526020600020905b81548152906001019060200180831161170957829003601f168201915b5050505050905086565b60405160200161173f90613748565b6040516020818303038152906040528051906020012060008082815260200190815260200160002060003373ffffffffffffffffffffffffffffffffffffffff1673ffffffffffffffffffffffffffffffffffffffff16815260200190815260200160002060009054906101000a900460ff166117f1576040517f08c379a00000000000000000000000000000000000000000000000000000000081526004016117e890613264565b60405180910390fd5b6040518060c001604052806006548152602001878152602001868152602001858152602001848152602001838152506005600060065481526020019081526020016000206000820151816000015560208201518160010190816118549190613490565b50604082015181600201908161186a9190613490565b5060608201518160030155608082015181600401908161188a9190613490565b5060a08201518160050190816118a09190613490565b50905050600660008154809291906118b790613591565b9190505550505050505050565b6040516020016118d3906137a9565b6040516020818303038152906040528051906020012060008082815260200190815260200160002060003373ffffffffffffffffffffffffffffffffffffffff1673ffffffffffffffffffffffffffffffffffffffff16815260200190815260200160002060009054906101000a900460ff16611985576040517f08c379a000000000000000000000000000000000000000000000000000000000815260040161197c90613264565b60405180910390fd5b6040518060c00160405280600854815260200187815260200186815260200185815260200184815260200183815250600760006008548152602001908152602001600020600082015181600001556020820151816001015560408201518160020190816119f29190613490565b50606082015181600301556080820151816004019081611a129190613490565b5060a0820151816005019081611a289190613490565b5090505060086000815480929190611a3f90613591565b9190505550505050505050565b611a54612345565b600360008381526020019081526020016000206040518060a001604052908160008201548152602001600182018054611a8c906132b3565b80601f0160208091040260200160405190810160405280929190818152602001828054611ab8906132b3565b8015611b055780601f10611ada57610100808354040283529160200191611b05565b820191906000526020600020905b815481529060010190602001808311611ae857829003601f168201915b50505050508152602001600282018054611b1e906132b3565b80601f0160208091040260200160405190810160405280929190818152602001828054611b4a906132b3565b8015611b975780601f10611b6c57610100808354040283529160200191611b97565b820191906000526020600020905b815481529060010190602001808311611b7a57829003601f168201915b5050505050815260200160038201548152602001600482018054611bba906132b3565b80601f0160208091040260200160405190810160405280929190818152602001828054611be6906132b3565b8015611c335780601f10611c0857610100808354040283529160200191611c33565b820191906000526020600020905b815481529060010190602001808311611c1657829003601f168201915b5050505050815250509050919050565b611c4b612374565b600560008381526020019081526020016000206040518060c001604052908160008201548152602001600182018054611c83906132b3565b80601f0160208091040260200160405190810160405280929190818152602001828054611caf906132b3565b8015611cfc5780601f10611cd157610100808354040283529160200191611cfc565b820191906000526020600020905b815481529060010190602001808311611cdf57829003601f168201915b50505050508152602001600282018054611d15906132b3565b80601f0160208091040260200160405190810160405280929190818152602001828054611d41906132b3565b8015611d8e5780601f10611d6357610100808354040283529160200191611d8e565b820191906000526020600020905b815481529060010190602001808311611d7157829003601f168201915b5050505050815260200160038201548152602001600482018054611db1906132b3565b80601f0160208091040260200160405190810160405280929190818152602001828054611ddd906132b3565b8015611e2a5780601f10611dff57610100808354040283529160200191611e2a565b820191906000526020600020905b815481529060010190602001808311611e0d57829003601f168201915b50505050508152602001600582018054611e43906132b3565b80601f0160208091040260200160405190810160405280929190818152602001828054611e6f906132b3565b8015611ebc5780601f10611e9157610100808354040283529160200191611ebc565b820191906000526020600020905b815481529060010190602001808311611e9f57829003601f168201915b5050505050815250509050919050565b6001602052806000526040600020600091509050806000015490806001015490806002018054611efb906132b3565b80601f0160208091040260200160405190810160405280929190818152602001828054611f27906132b3565b8015611f745780601f10611f4957610100808354040283529160200191611f74565b820191906000526020600020905b815481529060010190602001808311611f5757829003601f168201915b505050505090806003018054611f89906132b3565b80601f0160208091040260200160405190810160405280929190818152602001828054611fb5906132b3565b80156120025780601f10611fd757610100808354040283529160200191612002565b820191906000526020600020905b815481529060010190602001808311611fe557829003601f168201915b50505050509080600401549080600501805461201d906132b3565b80601f0160208091040260200160405190810160405280929190818152602001828054612049906132b3565b80156120965780601f1061206b57610100808354040283529160200191612096565b820191906000526020600020905b81548152906001019060200180831161207957829003601f168201915b5050505050908060060180546120ab906132b3565b80601f01602080910402602001604051908101604052809291908181526020018280546120d7906132b3565b80156121245780601f106120f957610100808354040283529160200191612124565b820191906000526020600020905b81548152906001019060200180831161210757829003601f168201915b505050505090806007018054612139906132b3565b80601f0160208091040260200160405190810160405280929190818152602001828054612165906132b3565b80156121b25780601f10612187576101008083540402835291602001916121b2565b820191906000526020600020905b81548152906001019060200180831161219557829003601f168201915b5050505050905088565b60006020528160005260406000206020528060005260406000206000915091509054906101000a900460ff1681565b600160008084815260200190815260200160002060008373ffffffffffffffffffffffffffffffffffffffff1673ffffffffffffffffffffffffffffffffffffffff16815260200190815260200160002060006101000a81548160ff0219169083151502179055508073ffffffffffffffffffffffffffffffffffffffff16827f5a06360d65acf95e98445dc834f205063424c636e65418d928cdfabc33a9539960405160405180910390a35050565b6040518060a0016040528060008152602001606081526020016000815260200160008152602001606081525090565b6040518060c001604052806000815260200160008152602001606081526020016000815260200160608152602001606081525090565b60405180610100016040528060008152602001600081526020016060815260200160608152602001600081526020016060815260200160608152602001606081525090565b6040518060a0016040528060008152602001606081526020016060815260200160008152602001606081525090565b6040518060c001604052806000815260200160608152602001606081526020016000815260200160608152602001606081525090565b6000604051905090565b600080fd5b600080fd5b600080fd5b600080fd5b6000601f19601f8301169050919050565b7f4e487b7100000000000000000000000000000000000000000000000000000000600052604160045260246000fd5b612411826123c8565b810181811067ffffffffffffffff821117156124305761242f6123d9565b5b80604052505050565b60006124436123aa565b905061244f8282612408565b919050565b600067ffffffffffffffff82111561246f5761246e6123d9565b5b612478826123c8565b9050602081019050919050565b82818337600083830152505050565b60006124a76124a284612454565b612439565b9050828152602081018484840111156124c3576124c26123c3565b5b6124ce848285612485565b509392505050565b600082601f8301126124eb576124ea6123be565b5b81356124fb848260208601612494565b91505092915050565b6000819050919050565b61251781612504565b811461252257600080fd5b50565b6000813590506125348161250e565b92915050565b60008060008060808587031215612554576125536123b4565b5b600085013567ffffffffffffffff811115612572576125716123b9565b5b61257e878288016124d6565b945050602061258f87828801612525565b93505060406125a087828801612525565b925050606085013567ffffffffffffffff8111156125c1576125c06123b9565b5b6125cd878288016124d6565b91505092959194509250565b600080600080608085870312156125f3576125f26123b4565b5b600085013567ffffffffffffffff811115612611576126106123b9565b5b61261d878288016124d6565b945050602085013567ffffffffffffffff81111561263e5761263d6123b9565b5b61264a878288016124d6565b935050604061265b87828801612525565b925050606085013567ffffffffffffffff81111561267c5761267b6123b9565b5b612688878288016124d6565b91505092959194509250565b6000602082840312156126aa576126a96123b4565b5b60006126b884828501612525565b91505092915050565b6126ca81612504565b82525050565b600081519050919050565b600082825260208201905092915050565b60005b8381101561270a5780820151818401526020810190506126ef565b83811115612719576000848401525b50505050565b600061272a826126d0565b61273481856126db565b93506127448185602086016126ec565b61274d816123c8565b840191505092915050565b600060a08201905061276d60008301886126c1565b818103602083015261277f818761271f565b90508181036040830152612793818661271f565b90506127a260608301856126c1565b81810360808301526127b4818461271f565b90509695505050505050565b6127c981612504565b82525050565b600082825260208201905092915050565b60006127eb826126d0565b6127f581856127cf565b93506128058185602086016126ec565b61280e816123c8565b840191505092915050565b600060a08301600083015161283160008601826127c0565b506020830151848203602086015261284982826127e0565b915050604083015161285e60408601826127c0565b50606083015161287160608601826127c0565b506080830151848203608086015261288982826127e0565b9150508091505092915050565b600060208201905081810360008301526128b08184612819565b905092915050565b6000819050919050565b6128cb816128b8565b81146128d657600080fd5b50565b6000813590506128e8816128c2565b92915050565b600073ffffffffffffffffffffffffffffffffffffffff82169050919050565b6000612919826128ee565b9050919050565b6129298161290e565b811461293457600080fd5b50565b60008135905061294681612920565b92915050565b60008060408385031215612963576129626123b4565b5b6000612971858286016128d9565b925050602061298285828601612937565b9150509250929050565b600060c0830160008301516129a460008601826127c0565b5060208301516129b760208601826127c0565b50604083015184820360408601526129cf82826127e0565b91505060608301516129e460608601826127c0565b50608083015184820360808601526129fc82826127e0565b91505060a083015184820360a0860152612a1682826127e0565b9150508091505092915050565b60006020820190508181036000830152612a3d818461298c565b905092915050565b600060c082019050612a5a60008301896126c1565b8181036020830152612a6c818861271f565b90508181036040830152612a80818761271f565b9050612a8f60608301866126c1565b8181036080830152612aa1818561271f565b905081810360a0830152612ab5818461271f565b9050979650505050505050565b600060a082019050612ad760008301886126c1565b8181036020830152612ae9818761271f565b9050612af860408301866126c1565b612b0560608301856126c1565b8181036080830152612b17818461271f565b90509695505050505050565b600061010083016000830151612b3c60008601826127c0565b506020830151612b4f60208601826127c0565b5060408301518482036040860152612b6782826127e0565b91505060608301518482036060860152612b8182826127e0565b9150506080830151612b9660808601826127c0565b5060a083015184820360a0860152612bae82826127e0565b91505060c083015184820360c0860152612bc882826127e0565b91505060e083015184820360e0860152612be282826127e0565b9150508091505092915050565b60006020820190508181036000830152612c098184612b23565b905092915050565b600080600080600080600060e0888a031215612c3057612c2f6123b4565b5b6000612c3e8a828b01612525565b975050602088013567ffffffffffffffff811115612c5f57612c5e6123b9565b5b612c6b8a828b016124d6565b965050604088013567ffffffffffffffff811115612c8c57612c8b6123b9565b5b612c988a828b016124d6565b9550506060612ca98a828b01612525565b945050608088013567ffffffffffffffff811115612cca57612cc96123b9565b5b612cd68a828b016124d6565b93505060a088013567ffffffffffffffff811115612cf757612cf66123b9565b5b612d038a828b016124d6565b92505060c088013567ffffffffffffffff811115612d2457612d236123b9565b5b612d308a828b016124d6565b91505092959891949750929550565b600060c082019050612d5460008301896126c1565b612d6160208301886126c1565b8181036040830152612d73818761271f565b9050612d8260608301866126c1565b8181036080830152612d94818561271f565b905081810360a0830152612da8818461271f565b9050979650505050505050565b600080600080600060a08688031215612dd157612dd06123b4565b5b600086013567ffffffffffffffff811115612def57612dee6123b9565b5b612dfb888289016124d6565b955050602086013567ffffffffffffffff811115612e1c57612e1b6123b9565b5b612e28888289016124d6565b9450506040612e3988828901612525565b935050606086013567ffffffffffffffff811115612e5a57612e596123b9565b5b612e66888289016124d6565b925050608086013567ffffffffffffffff811115612e8757612e866123b9565b5b612e93888289016124d6565b9150509295509295909350565b600080600080600060a08688031215612ebc57612ebb6123b4565b5b6000612eca88828901612525565b955050602086013567ffffffffffffffff811115612eeb57612eea6123b9565b5b612ef7888289016124d6565b9450506040612f0888828901612525565b935050606086013567ffffffffffffffff811115612f2957612f286123b9565b5b612f35888289016124d6565b925050608086013567ffffffffffffffff811115612f5657612f556123b9565b5b612f62888289016124d6565b9150509295509295909350565b600060a083016000830151612f8760008601826127c0565b5060208301518482036020860152612f9f82826127e0565b91505060408301518482036040860152612fb982826127e0565b9150506060830151612fce60608601826127c0565b5060808301518482036080860152612fe682826127e0565b9150508091505092915050565b6000602082019050818103600083015261300d8184612f6f565b905092915050565b600060c08301600083015161302d60008601826127c0565b506020830151848203602086015261304582826127e0565b9150506040830151848203604086015261305f82826127e0565b915050606083015161307460608601826127c0565b506080830151848203608086015261308c82826127e0565b91505060a083015184820360a08601526130a682826127e0565b9150508091505092915050565b600060208201905081810360008301526130cd8184613015565b905092915050565b6000610100820190506130eb600083018b6126c1565b6130f8602083018a6126c1565b818103604083015261310a818961271f565b9050818103606083015261311e818861271f565b905061312d60808301876126c1565b81810360a083015261313f818661271f565b905081810360c0830152613153818561271f565b905081810360e0830152613167818461271f565b90509998505050505050505050565b60008115159050919050565b61318b81613176565b82525050565b60006020820190506131a66000830184613182565b92915050565b600081905092915050565b7f436f6e73756d6572000000000000000000000000000000000000000000000000600082015250565b60006131ed6008836131ac565b91506131f8826131b7565b600882019050919050565b600061320e826131e0565b9150819050919050565b7f6e6f7420617574686f72697a6564000000000000000000000000000000000000600082015250565b600061324e600e836126db565b915061325982613218565b602082019050919050565b6000602082019050818103600083015261327d81613241565b9050919050565b7f4e487b7100000000000000000000000000000000000000000000000000000000600052602260045260246000fd5b600060028204905060018216806132cb57607f821691505b6020821081036132de576132dd613284565b5b50919050565b60008190508160005260206000209050919050565b60006020601f8301049050919050565b600082821b905092915050565b6000600883026133467fffffffffffffffffffffffffffffffffffffffffffffffffffffffffffffffff82613309565b6133508683613309565b95508019841693508086168417925050509392505050565b6000819050919050565b600061338d61338861338384612504565b613368565b612504565b9050919050565b6000819050919050565b6133a783613372565b6133bb6133b382613394565b848454613316565b825550505050565b600090565b6133d06133c3565b6133db81848461339e565b505050565b5b818110156133ff576133f46000826133c8565b6001810190506133e1565b5050565b601f82111561344457613415816132e4565b61341e846132f9565b8101602085101561342d578190505b613441613439856132f9565b8301826133e0565b50505b505050565b600082821c905092915050565b600061346760001984600802613449565b1980831691505092915050565b60006134808383613456565b9150826002028217905092915050565b613499826126d0565b67ffffffffffffffff8111156134b2576134b16123d9565b5b6134bc82546132b3565b6134c7828285613403565b600060209050601f8311600181146134fa57600084156134e8578287015190505b6134f28582613474565b86555061355a565b601f198416613508866132e4565b60005b828110156135305784890151825560018201915060208501945060208101905061350b565b8683101561354d5784890151613549601f891682613456565b8355505b6001600288020188555050505b505050505050565b7f4e487b7100000000000000000000000000000000000000000000000000000000600052601160045260246000fd5b600061359c82612504565b91507fffffffffffffffffffffffffffffffffffffffffffffffffffffffffffffffff82036135ce576135cd613562565b5b600182019050919050565b7f4469737472696275746f72000000000000000000000000000000000000000000600082015250565b600061360f600b836131ac565b915061361a826135d9565b600b82019050919050565b600061363082613602565b9150819050919050565b7f41646d696e000000000000000000000000000000000000000000000000000000600082015250565b60006136706005836131ac565b915061367b8261363a565b600582019050919050565b600061369182613663565b9150819050919050565b7f4d616e7566616374757265720000000000000000000000000000000000000000600082015250565b60006136d1600c836131ac565b91506136dc8261369b565b600c82019050919050565b60006136f2826136c4565b9150819050919050565b7f52657461696c6572000000000000000000000000000000000000000000000000600082015250565b60006137326008836131ac565b915061373d826136fc565b600882019050919050565b600061375382613725565b9150819050919050565b7f437573746f6d6572537570706f72740000000000000000000000000000000000600082015250565b6000613793600f836131ac565b915061379e8261375d565b600f82019050919050565b60006137b482613786565b915081905091905056fea264697066735822122092bf7a75007b95dd26bdf2d20793b4cd0f8ffb0f46addf196ece56f5bfe97bdf64736f6c634300080f0033",
  "immutableReferences": {},
  "source": "// SPDX-License-Identifier: UNLICENCE\npragma solidity >=0.4.22 <0.9.0;\npragma experimental ABIEncoderV2;\n\ncontract PLC {\n    event GrantRole(bytes32 indexed role, address indexed account);\n    event RevokeRole(bytes32 indexed role, address indexed account);\n\n    //role => account => true\n    mapping(bytes32 => mapping(address => bool)) public roles;\n\n    //0xa729ef4e25027bc652fc8b5c4d1d902947361fa7c8e7b4905e877823f27331b3\n    bytes32 private constant Admin = keccak256(abi.encodePacked(\"Admin\"));\n    //0xcec9b8e63c868f2f7f30368f1583e7aa39ae80e163d57a859fa5a90244b28ac1\n    bytes32 private constant Manufacturer =\n        keccak256(abi.encodePacked(\"Manufacturer\"));\n    // 0xa19d0db335544d3c3ec35c34b9b35a51bd4861f7162de07d5af409611794db04\n    bytes32 private constant Distributor =\n        keccak256(abi.encodePacked(\"Distributor\"));\n    //0x1534e98f9dd33e3681193a0541f0c2e3d732d183dcdc630aac2b943280af42a0\n    bytes32 private constant Retailer = keccak256(abi.encodePacked(\"Retailer\"));\n    //0x149c25a1aba1b21d5181b50679874a3340d23c071441bfbf39141562283e253c\n    bytes32 private constant CustomerSupport =\n        keccak256(abi.encodePacked(\"CustomerSupport\"));\n    //0xc0878b4b16a78e8085cba0ca02fc0924f1492924058d153153a3f286e0fd70ff\n    bytes32 private constant Consumer = keccak256(abi.encodePacked(\"Consumer\"));\n\n    modifier onlyRole(bytes32 _role) {\n        require(roles[_role][msg.sender], \"not authorized\");\n        _;\n    }\n    modifier onlyBy(bytes32 _role) {\n        require(roles[_role][msg.sender], \"not authorized\");\n        _;\n    }\n\n    //manufacturer\n    struct product {\n        uint256 m_id;\n        uint256 p_id;\n        string product_name;\n        string product_model_number;\n        uint256 batch_id;\n        string date_time;\n        string address_manufacturer;\n        string name_manufacturer;\n    }\n    mapping(uint256 => product) public prodDETAILS;\n    event manufacturing(uint256 indexed m_Id);\n    uint256 prodCount;\n    //distributor\n    struct dis {\n        uint256 d_id;\n        string dis_name;\n        string address_dis;\n        uint256 prod_id;\n        string date_time;\n    }\n    mapping(uint256 => dis) public distributor;\n    event distributing(uint256 indexed d_Id);\n    uint256 distributorCount;\n    //retailer\n    struct retail {\n        uint256 re_id;\n        string r_name;\n        string address_r;\n        uint256 prod_id;\n        string date_time;\n        string sold_status;\n    }\n    mapping(uint256 => retail) public Retail;\n    event retailing(uint256 indexed re_Id);\n    uint256 retailerCount;\n    //servicecenter\n    struct service {\n        uint256 se_id;\n        uint256 prod_id;\n        string defect_part;\n        uint256 defect_rate;\n        string location;\n        string date_time;\n    }\n    mapping(uint256 => service) public ServiceCenter;\n    event servicing(uint256 indexed se_Id);\n    uint256 sCount;\n    //customer\n    struct customer {\n        uint256 cus_id;\n        string email;\n        uint256 prod_id;\n        uint256 ratings;\n        string date_time;\n    }\n    mapping(uint256 => customer) public Customer;\n    event Purchasing(uint256 indexed c_Id);\n    uint256 CustomerCount;\n\n    constructor() {\n        _grantRole(Admin, msg.sender);\n        prodCount = 0;\n        distributorCount = 0;\n        retailerCount = 0;\n        sCount = 0;\n        CustomerCount = 0;\n    }\n\n    function _grantRole(bytes32 _role, address _account) internal {\n        roles[_role][_account] = true;\n        emit GrantRole(_role, _account);\n    }\n\n    function grantRole(bytes32 _role, address _account)\n        external\n        onlyRole(Admin)\n    {\n        _grantRole(_role, _account);\n    }\n\n    function addproduct(\n        uint256 _p_id,\n        string memory _product_name,\n        string memory _product_model_number,\n        uint256 _batch_id,\n        string memory _date_time,\n        string memory _address_manufacturer,\n        string memory _name_manufacturer\n    ) external onlyBy(Manufacturer) {\n        prodDETAILS[prodCount] = product(\n            prodCount,\n            _p_id,\n            _product_name,\n            _product_model_number,\n            _batch_id,\n            _date_time,\n            _address_manufacturer,\n            _name_manufacturer\n        );\n        prodCount++;\n    }\n\n    function add_distributordetails(\n        string memory _dis_name,\n        string memory _address_dis,\n        uint256 _prod_id,\n        string memory _date_time\n    ) external onlyBy(Distributor) {\n        distributor[distributorCount] = dis(\n            distributorCount,\n            _dis_name,\n            _address_dis,\n            _prod_id,\n            _date_time\n        );\n        distributorCount++;\n    }\n\n    function add_retailerdetails(\n        string memory _r_name,\n        string memory _address_r,\n        uint256 _prod_id,\n        string memory _date_time,\n        string memory _sold_status\n    ) external onlyBy(Retailer) {\n        Retail[retailerCount] = retail(\n            retailerCount,\n            _r_name,\n            _address_r,\n            _prod_id,\n            _date_time,\n            _sold_status\n        );\n        retailerCount++;\n    }\n\n    function add_SCdetails(\n        uint256 _prod_id,\n        string memory _defect_part,\n        uint256 _defect_rate,\n        string memory _location,\n        string memory _date_time\n    ) external onlyBy(CustomerSupport) {\n        ServiceCenter[sCount] = service(\n            sCount,\n            _prod_id,\n            _defect_part,\n            _defect_rate,\n            _location,\n            _date_time\n        );\n        sCount++;\n    }\n\n    function cus_details(\n        string memory _email,\n        uint256 _prod_id,\n        uint256 _ratings,\n        string memory _date_time\n    ) external onlyBy(Consumer) {\n        Customer[CustomerCount] = customer(\n            CustomerCount,\n            _email,\n            _prod_id,\n            _ratings,\n            _date_time\n        );\n        CustomerCount++;\n    }\n\n    function getManufacturerDetails(uint256 _prodId)\n        public\n        view\n        returns (product memory)\n    {\n        return prodDETAILS[_prodId];\n    }\n\n    function getDistributorDetails(uint256 _disId)\n        public\n        view\n        returns (dis memory)\n    {\n        return distributor[_disId];\n    }\n\n    function getRetailerDetails(uint256 _rId)\n        public\n        view\n        returns (retail memory)\n    {\n        return Retail[_rId];\n    }\n\n    function getServiceCenterDetails(uint256 _sId)\n        public\n        view\n        returns (service memory)\n    {\n        return ServiceCenter[_sId];\n    }\n\n    function getCustomerDetails(uint256 _cId)\n        public\n        view\n        returns (customer memory)\n    {\n        return Customer[_cId];\n    }\n}\n",
  "sourcePath": "C:\\Users\\Dell\\Desktop\\web3-bc-demo\\contracts\\PLC.sol",
  "compiler": {
    "name": "solc",
    "version": "0.8.15+commit.e14f2714.Emscripten.clang"
  },
  "schemaVersion": "3.4.8",
  "updatedAt": "2022-08-18T14:22:40.710Z",
  "devdoc": {
    "kind": "dev",
    "methods": {},
    "version": 1
  },
  "userdoc": {
    "kind": "user",
    "methods": {},
    "version": 1
  }
}